{
  "_format": "hh-sol-artifact-1",
  "contractName": "MemeSync",
  "sourceName": "contracts/MemeSync.sol",
  "abi": [
    {
      "inputs": [],
      "stateMutability": "nonpayable",
      "type": "constructor"
    },
    {
      "anonymous": false,
      "inputs": [
        {
          "indexed": true,
          "internalType": "uint256",
          "name": "trackId",
          "type": "uint256"
        },
        {
          "indexed": false,
          "internalType": "string",
          "name": "name",
          "type": "string"
        },
        {
          "indexed": false,
          "internalType": "address",
          "name": "creator",
          "type": "address"
        }
      ],
      "name": "AudioTrackCreated",
      "type": "event"
    },
    {
      "anonymous": false,
      "inputs": [
        {
          "indexed": true,
          "internalType": "uint256",
          "name": "projectId",
          "type": "uint256"
        },
        {
          "indexed": false,
          "internalType": "bytes32",
          "name": "assetHash",
          "type": "bytes32"
        }
      ],
      "name": "IPAssetPrepared",
      "type": "event"
    },
    {
      "anonymous": false,
      "inputs": [
        {
          "indexed": true,
          "internalType": "uint256",
          "name": "templateId",
          "type": "uint256"
        },
        {
          "indexed": false,
          "internalType": "string",
          "name": "name",
          "type": "string"
        },
        {
          "indexed": false,
          "internalType": "address",
          "name": "creator",
          "type": "address"
        }
      ],
      "name": "MemeTemplateCreated",
      "type": "event"
    },
    {
      "anonymous": false,
      "inputs": [
        {
          "indexed": true,
          "internalType": "address",
          "name": "previousOwner",
          "type": "address"
        },
        {
          "indexed": true,
          "internalType": "address",
          "name": "newOwner",
          "type": "address"
        }
      ],
      "name": "OwnershipTransferred",
      "type": "event"
    },
    {
      "anonymous": false,
      "inputs": [
        {
          "indexed": true,
          "internalType": "uint256",
          "name": "projectId",
          "type": "uint256"
        },
        {
          "indexed": false,
          "internalType": "address",
          "name": "creator",
          "type": "address"
        }
      ],
      "name": "ProjectCreated",
      "type": "event"
    },
    {
      "anonymous": false,
      "inputs": [
        {
          "indexed": true,
          "internalType": "uint256",
          "name": "projectId",
          "type": "uint256"
        },
        {
          "indexed": false,
          "internalType": "string",
          "name": "outputUri",
          "type": "string"
        }
      ],
      "name": "ProjectExported",
      "type": "event"
    },
    {
      "anonymous": false,
      "inputs": [
        {
          "indexed": true,
          "internalType": "uint256",
          "name": "projectId",
          "type": "uint256"
        },
        {
          "indexed": false,
          "internalType": "uint256[]",
          "name": "syncPoints",
          "type": "uint256[]"
        }
      ],
      "name": "ProjectSynced",
      "type": "event"
    },
    {
      "inputs": [
        {
          "internalType": "uint256",
          "name": "",
          "type": "uint256"
        }
      ],
      "name": "audioTracks",
      "outputs": [
        {
          "internalType": "uint256",
          "name": "id",
          "type": "uint256"
        },
        {
          "internalType": "string",
          "name": "name",
          "type": "string"
        },
        {
          "internalType": "string",
          "name": "audioUri",
          "type": "string"
        },
        {
          "internalType": "uint256",
          "name": "duration",
          "type": "uint256"
        },
        {
          "internalType": "uint256",
          "name": "bpm",
          "type": "uint256"
        },
        {
          "internalType": "address",
          "name": "creator",
          "type": "address"
        },
        {
          "internalType": "uint256",
          "name": "createdAt",
          "type": "uint256"
        }
      ],
      "stateMutability": "view",
      "type": "function"
    },
    {
      "inputs": [
        {
          "internalType": "string",
          "name": "name",
          "type": "string"
        },
        {
          "internalType": "string",
          "name": "audioUri",
          "type": "string"
        },
        {
          "internalType": "uint256",
          "name": "duration",
          "type": "uint256"
        },
        {
          "internalType": "uint256",
          "name": "bpm",
          "type": "uint256"
        }
      ],
      "name": "createAudioTrack",
      "outputs": [
        {
          "internalType": "uint256",
          "name": "",
          "type": "uint256"
        }
      ],
      "stateMutability": "nonpayable",
      "type": "function"
    },
    {
      "inputs": [
        {
          "internalType": "uint256",
          "name": "memeId",
          "type": "uint256"
        },
        {
          "internalType": "uint256",
          "name": "audioId",
          "type": "uint256"
        },
        {
          "internalType": "string",
          "name": "projectName",
          "type": "string"
        }
      ],
      "name": "createMemeProject",
      "outputs": [
        {
          "internalType": "uint256",
          "name": "",
          "type": "uint256"
        }
      ],
      "stateMutability": "nonpayable",
      "type": "function"
    },
    {
      "inputs": [
        {
          "internalType": "string",
          "name": "name",
          "type": "string"
        },
        {
          "internalType": "string",
          "name": "imageUri",
          "type": "string"
        },
        {
          "internalType": "uint256",
          "name": "duration",
          "type": "uint256"
        },
        {
          "internalType": "uint256",
          "name": "frameCount",
          "type": "uint256"
        }
      ],
      "name": "createMemeTemplate",
      "outputs": [
        {
          "internalType": "uint256",
          "name": "",
          "type": "uint256"
        }
      ],
      "stateMutability": "nonpayable",
      "type": "function"
    },
    {
      "inputs": [
        {
          "internalType": "uint256",
          "name": "projectId",
          "type": "uint256"
        },
        {
          "internalType": "string",
          "name": "outputUri",
          "type": "string"
        }
      ],
      "name": "exportProject",
      "outputs": [],
      "stateMutability": "nonpayable",
      "type": "function"
    },
    {
      "inputs": [
        {
          "internalType": "uint256",
          "name": "projectId",
          "type": "uint256"
        }
      ],
      "name": "getProject",
      "outputs": [
        {
          "components": [
            {
              "internalType": "uint256",
              "name": "id",
              "type": "uint256"
            },
            {
              "internalType": "uint256",
              "name": "memeId",
              "type": "uint256"
            },
            {
              "internalType": "uint256",
              "name": "audioId",
              "type": "uint256"
            },
            {
              "internalType": "string",
              "name": "projectName",
              "type": "string"
            },
            {
              "internalType": "address",
              "name": "creator",
              "type": "address"
            },
            {
              "internalType": "uint256[]",
              "name": "syncPoints",
              "type": "uint256[]"
            },
            {
              "internalType": "string",
              "name": "outputUri",
              "type": "string"
            },
            {
              "internalType": "bytes32",
              "name": "ipAssetHash",
              "type": "bytes32"
            },
            {
              "internalType": "enum MemeSync.ProjectStatus",
              "name": "status",
              "type": "uint8"
            },
            {
              "internalType": "uint256",
              "name": "createdAt",
              "type": "uint256"
            },
            {
              "internalType": "uint256",
              "name": "updatedAt",
              "type": "uint256"
            }
          ],
          "internalType": "struct MemeSync.MemeProject",
          "name": "",
          "type": "tuple"
        }
      ],
      "stateMutability": "view",
      "type": "function"
    },
    {
      "inputs": [
        {
          "internalType": "address",
          "name": "user",
          "type": "address"
        }
      ],
      "name": "getUserProjects",
      "outputs": [
        {
          "internalType": "uint256[]",
          "name": "",
          "type": "uint256[]"
        }
      ],
      "stateMutability": "view",
      "type": "function"
    },
    {
      "inputs": [
        {
          "internalType": "uint256",
          "name": "",
          "type": "uint256"
        }
      ],
      "name": "memeProjects",
      "outputs": [
        {
          "internalType": "uint256",
          "name": "id",
          "type": "uint256"
        },
        {
          "internalType": "uint256",
          "name": "memeId",
          "type": "uint256"
        },
        {
          "internalType": "uint256",
          "name": "audioId",
          "type": "uint256"
        },
        {
          "internalType": "string",
          "name": "projectName",
          "type": "string"
        },
        {
          "internalType": "address",
          "name": "creator",
          "type": "address"
        },
        {
          "internalType": "string",
          "name": "outputUri",
          "type": "string"
        },
        {
          "internalType": "bytes32",
          "name": "ipAssetHash",
          "type": "bytes32"
        },
        {
          "internalType": "enum MemeSync.ProjectStatus",
          "name": "status",
          "type": "uint8"
        },
        {
          "internalType": "uint256",
          "name": "createdAt",
          "type": "uint256"
        },
        {
          "internalType": "uint256",
          "name": "updatedAt",
          "type": "uint256"
        }
      ],
      "stateMutability": "view",
      "type": "function"
    },
    {
      "inputs": [
        {
          "internalType": "uint256",
          "name": "",
          "type": "uint256"
        }
      ],
      "name": "memeTemplates",
      "outputs": [
        {
          "internalType": "uint256",
          "name": "id",
          "type": "uint256"
        },
        {
          "internalType": "string",
          "name": "name",
          "type": "string"
        },
        {
          "internalType": "string",
          "name": "imageUri",
          "type": "string"
        },
        {
          "internalType": "uint256",
          "name": "duration",
          "type": "uint256"
        },
        {
          "internalType": "uint256",
          "name": "frameCount",
          "type": "uint256"
        },
        {
          "internalType": "address",
          "name": "creator",
          "type": "address"
        },
        {
          "internalType": "uint256",
          "name": "createdAt",
          "type": "uint256"
        }
      ],
      "stateMutability": "view",
      "type": "function"
    },
    {
      "inputs": [],
      "name": "owner",
      "outputs": [
        {
          "internalType": "address",
          "name": "",
          "type": "address"
        }
      ],
      "stateMutability": "view",
      "type": "function"
    },
    {
      "inputs": [
        {
          "internalType": "uint256",
          "name": "projectId",
          "type": "uint256"
        },
        {
          "internalType": "string",
          "name": "metadataUri",
          "type": "string"
        }
      ],
      "name": "prepareIPAsset",
      "outputs": [
        {
          "internalType": "bytes32",
          "name": "",
          "type": "bytes32"
        }
      ],
      "stateMutability": "nonpayable",
      "type": "function"
    },
    {
      "inputs": [],
      "name": "renounceOwnership",
      "outputs": [],
      "stateMutability": "nonpayable",
      "type": "function"
    },
    {
      "inputs": [
        {
          "internalType": "uint256",
          "name": "projectId",
          "type": "uint256"
        },
        {
          "internalType": "uint256[]",
          "name": "syncPoints",
          "type": "uint256[]"
        }
      ],
      "name": "syncProject",
      "outputs": [],
      "stateMutability": "nonpayable",
      "type": "function"
    },
    {
      "inputs": [
        {
          "internalType": "address",
          "name": "newOwner",
          "type": "address"
        }
      ],
      "name": "transferOwnership",
      "outputs": [],
      "stateMutability": "nonpayable",
      "type": "function"
    },
    {
      "inputs": [
        {
          "internalType": "address",
          "name": "",
          "type": "address"
        },
        {
          "internalType": "uint256",
          "name": "",
          "type": "uint256"
        }
      ],
      "name": "userProjects",
      "outputs": [
        {
          "internalType": "uint256",
          "name": "",
          "type": "uint256"
        }
      ],
      "stateMutability": "view",
      "type": "function"
    }
  ],
  "bytecode": "0x60806040523480156200001157600080fd5b5062000032620000266200004f60201b60201c565b6200005760201b60201c565b60018081905550620000496200011b60201b60201c565b6200092c565b600033905090565b60008060009054906101000a900473ffffffffffffffffffffffffffffffffffffffff169050816000806101000a81548173ffffffffffffffffffffffffffffffffffffffff021916908373ffffffffffffffffffffffffffffffffffffffff1602179055508173ffffffffffffffffffffffffffffffffffffffff168173ffffffffffffffffffffffffffffffffffffffff167f8be0079c531659141344cd1fd0a4f28419497f9722a3daafe3b4186f6b6457e060405160405180910390a35050565b6200012d60026200058c60201b60201c565b6040518060e00160405280600181526020016040518060400160405280601481526020017f4469737472616374656420426f79667269656e6400000000000000000000000081525081526020016040518060600160405280602a815260200162003727602a913981526020016005815260200160038152602001620001b7620005a260201b60201c565b73ffffffffffffffffffffffffffffffffffffffff1681526020014281525060056000600181526020019081526020016000206000820151816000015560208201518160010190816200020b919062000845565b50604082015181600201908162000223919062000845565b50606082015181600301556080820151816004015560a08201518160050160006101000a81548173ffffffffffffffffffffffffffffffffffffffff021916908373ffffffffffffffffffffffffffffffffffffffff16021790555060c082015181600601559050506200029e60026200058c60201b60201c565b6040518060e00160405280600281526020016040518060400160405280601381526020017f4472616b6520486f746c696e6520426c696e670000000000000000000000000081525081526020016040518060400160405280601b81526020017f697066733a2f2f516d44656661756c74322f6472616b652e6a706700000000008152508152602001600481526020016002815260200162000344620005a260201b60201c565b73ffffffffffffffffffffffffffffffffffffffff16815260200142815250600560006002815260200190815260200160002060008201518160000155602082015181600101908162000398919062000845565b506040820151816002019081620003b0919062000845565b50606082015181600301556080820151816004015560a08201518160050160006101000a81548173ffffffffffffffffffffffffffffffffffffffff021916908373ffffffffffffffffffffffffffffffffffffffff16021790555060c082015181600601559050506200042b60026200058c60201b60201c565b6040518060e00160405280600381526020016040518060400160405280600e81526020017f4368616e6765204d79204d696e640000000000000000000000000000000000008152508152602001604051806060016040528060248152602001620037036024913981526020016006815260200160018152602001620004b5620005a260201b60201c565b73ffffffffffffffffffffffffffffffffffffffff16815260200142815250600560006003815260200190815260200160002060008201518160000155602082015181600101908162000509919062000845565b50604082015181600201908162000521919062000845565b50606082015181600301556080820151816004015560a08201518160050160006101000a81548173ffffffffffffffffffffffffffffffffffffffff021916908373ffffffffffffffffffffffffffffffffffffffff16021790555060c08201518160060155905050565b6001816000016000828254019250508190555050565b60008060009054906101000a900473ffffffffffffffffffffffffffffffffffffffff16905090565b600081519050919050565b7f4e487b7100000000000000000000000000000000000000000000000000000000600052604160045260246000fd5b7f4e487b7100000000000000000000000000000000000000000000000000000000600052602260045260246000fd5b600060028204905060018216806200064d57607f821691505b60208210810362000663576200066262000605565b5b50919050565b60008190508160005260206000209050919050565b60006020601f8301049050919050565b600082821b905092915050565b600060088302620006cd7fffffffffffffffffffffffffffffffffffffffffffffffffffffffffffffffff826200068e565b620006d986836200068e565b95508019841693508086168417925050509392505050565b6000819050919050565b6000819050919050565b600062000726620007206200071a84620006f1565b620006fb565b620006f1565b9050919050565b6000819050919050565b620007428362000705565b6200075a62000751826200072d565b8484546200069b565b825550505050565b600090565b6200077162000762565b6200077e81848462000737565b505050565b5b81811015620007a6576200079a60008262000767565b60018101905062000784565b5050565b601f821115620007f557620007bf8162000669565b620007ca846200067e565b81016020851015620007da578190505b620007f2620007e9856200067e565b83018262000783565b50505b505050565b600082821c905092915050565b60006200081a60001984600802620007fa565b1980831691505092915050565b600062000835838362000807565b9150826002028217905092915050565b6200085082620005cb565b67ffffffffffffffff8111156200086c576200086b620005d6565b5b62000878825462000634565b62000885828285620007aa565b600060209050601f831160018114620008bd5760008415620008a8578287015190505b620008b4858262000827565b86555062000924565b601f198416620008cd8662000669565b60005b82811015620008f757848901518255600182019150602085019450602081019050620008d0565b8683101562000917578489015162000913601f89168262000807565b8355505b6001600288020188555050505b505050505050565b612dc7806200093c6000396000f3fe608060405234801561001057600080fd5b50600436106100f55760003560e01c8063b971725611610097578063f0f3f2c811610066578063f0f3f2c8146102b6578063f13d29d6146102e6578063f2fde38b14610316578063ffb78daa14610332576100f5565b8063b971725614610204578063d414567f14610220578063d607f66614610256578063e32e723c14610286576100f5565b8063715018a6116100d3578063715018a6146101765780638abb50cc146101805780638da5cb5b146101b0578063a9eb9540146101ce576100f5565b80632fa9c007146100fa5780633d638c0a1461012a57806352f64f2f1461015a575b600080fd5b610114600480360381019061010f9190611b53565b61036b565b6040516101219190611ba2565b60405180910390f35b610144600480360381019061013f9190611d03565b61039c565b6040516101519190611ba2565b60405180910390f35b610174600480360381019061016f9190611d72565b6106f3565b005b61017e610907565b005b61019a60048036038101906101959190611dce565b61091b565b6040516101a79190611ba2565b60405180910390f35b6101b8610a75565b6040516101c59190611e7c565b60405180910390f35b6101e860048036038101906101e39190611e97565b610a9e565b6040516101fb9796959493929190611f43565b60405180910390f35b61021e60048036038101906102199190612088565b610c10565b005b61023a60048036038101906102359190611e97565b610db3565b60405161024d9796959493929190611f43565b60405180910390f35b610270600480360381019061026b9190611dce565b610f25565b60405161027d9190611ba2565b60405180910390f35b6102a0600480360381019061029b91906120e4565b61107f565b6040516102ad91906121cf565b60405180910390f35b6102d060048036038101906102cb9190611e97565b611116565b6040516102dd9190612446565b60405180910390f35b61030060048036038101906102fb9190611d72565b6113e7565b60405161030d9190612477565b60405180910390f35b610330600480360381019061032b91906120e4565b61163a565b005b61034c60048036038101906103479190611e97565b6116bd565b6040516103629a999897969594939291906124a1565b60405180910390f35b6008602052816000526040600020818154811061038757600080fd5b90600052602060002001600091509150505481565b600080841180156103b657506103b2600261184e565b8411155b6103f5576040517f08c379a00000000000000000000000000000000000000000000000000000000081526004016103ec90612597565b60405180910390fd5b60008311801561040e575061040a600361184e565b8311155b61044d576040517f08c379a000000000000000000000000000000000000000000000000000000000815260040161044490612603565b60405180910390fd5b610457600461185c565b6000610463600461184e565b90506040518061016001604052808281526020018681526020018581526020018481526020013373ffffffffffffffffffffffffffffffffffffffff168152602001600067ffffffffffffffff8111156104c0576104bf611bd8565b5b6040519080825280602002602001820160405280156104ee5781602001602082028036833780820191505090505b5081526020016040518060200160405280600081525081526020016000801b815260200160006004811115610526576105256122d2565b5b81526020014281526020014281525060076000838152602001908152602001600020600082015181600001556020820151816001015560408201518160020155606082015181600301908161057b919061282f565b5060808201518160040160006101000a81548173ffffffffffffffffffffffffffffffffffffffff021916908373ffffffffffffffffffffffffffffffffffffffff16021790555060a08201518160050190805190602001906105df9291906119bc565b5060c08201518160060190816105f5919061282f565b5060e082015181600701556101008201518160080160006101000a81548160ff0219169083600481111561062c5761062b6122d2565b5b0217905550610120820151816009015561014082015181600a0155905050600860003373ffffffffffffffffffffffffffffffffffffffff1673ffffffffffffffffffffffffffffffffffffffff168152602001908152602001600020819080600181540180825580915050600190039060005260206000200160009091909190915055807f63c92f9505d420bff631cb9df33be952bdc11e2118da36a850b43e6bcc4ce4de336040516106e09190611e7c565b60405180910390a2809150509392505050565b8160008111801561070d5750610709600461184e565b8111155b61074c576040517f08c379a00000000000000000000000000000000000000000000000000000000081526004016107439061294d565b60405180910390fd5b823373ffffffffffffffffffffffffffffffffffffffff166007600083815260200190815260200160002060040160009054906101000a900473ffffffffffffffffffffffffffffffffffffffff1673ffffffffffffffffffffffffffffffffffffffff16146107f1576040517f08c379a00000000000000000000000000000000000000000000000000000000081526004016107e8906129b9565b60405180910390fd5b60006007600086815260200190815260200160002090506001600481111561081c5761081b6122d2565b5b8160080160009054906101000a900460ff1660048111156108405761083f6122d2565b5b14610880576040517f08c379a000000000000000000000000000000000000000000000000000000000815260040161087790612a25565b60405180910390fd5b83816006019081610891919061282f565b5060028160080160006101000a81548160ff021916908360048111156108ba576108b96122d2565b5b02179055504281600a0181905550847f4c87419fff238b3f552a0e20289b39b68cfe0a4023fbf8a434754984ee0fb631856040516108f89190612a45565b60405180910390a25050505050565b61090f611872565b61091960006118f0565b565b6000610927600361185c565b6000610933600361184e565b90506040518060e001604052808281526020018781526020018681526020018581526020018481526020013373ffffffffffffffffffffffffffffffffffffffff16815260200142815250600660008381526020019081526020016000206000820151816000015560208201518160010190816109b0919061282f565b5060408201518160020190816109c6919061282f565b50606082015181600301556080820151816004015560a08201518160050160006101000a81548173ffffffffffffffffffffffffffffffffffffffff021916908373ffffffffffffffffffffffffffffffffffffffff16021790555060c08201518160060155905050807ff06193f66dc570c4834cbaaaa5181e7d12f4c66b506171e64a071a15209290088733604051610a61929190612a67565b60405180910390a280915050949350505050565b60008060009054906101000a900473ffffffffffffffffffffffffffffffffffffffff16905090565b6005602052806000526040600020600091509050806000015490806001018054610ac790612652565b80601f0160208091040260200160405190810160405280929190818152602001828054610af390612652565b8015610b405780601f10610b1557610100808354040283529160200191610b40565b820191906000526020600020905b815481529060010190602001808311610b2357829003601f168201915b505050505090806002018054610b5590612652565b80601f0160208091040260200160405190810160405280929190818152602001828054610b8190612652565b8015610bce5780601f10610ba357610100808354040283529160200191610bce565b820191906000526020600020905b815481529060010190602001808311610bb157829003601f168201915b5050505050908060030154908060040154908060050160009054906101000a900473ffffffffffffffffffffffffffffffffffffffff16908060060154905087565b81600081118015610c2a5750610c26600461184e565b8111155b610c69576040517f08c379a0000000000000000000000000000000000000000000000000000000008152600401610c609061294d565b60405180910390fd5b823373ffffffffffffffffffffffffffffffffffffffff166007600083815260200190815260200160002060040160009054906101000a900473ffffffffffffffffffffffffffffffffffffffff1673ffffffffffffffffffffffffffffffffffffffff1614610d0e576040517f08c379a0000000000000000000000000000000000000000000000000000000008152600401610d05906129b9565b60405180910390fd5b600060076000868152602001908152602001600020905083816005019080519060200190610d3d9291906119bc565b5060018160080160006101000a81548160ff02191690836004811115610d6657610d656122d2565b5b02179055504281600a0181905550847f4dfb16571691a1b36c5c1145cb777480f2bb6f983cd9116152ff5b4ac677435385604051610da491906121cf565b60405180910390a25050505050565b6006602052806000526040600020600091509050806000015490806001018054610ddc90612652565b80601f0160208091040260200160405190810160405280929190818152602001828054610e0890612652565b8015610e555780601f10610e2a57610100808354040283529160200191610e55565b820191906000526020600020905b815481529060010190602001808311610e3857829003601f168201915b505050505090806002018054610e6a90612652565b80601f0160208091040260200160405190810160405280929190818152602001828054610e9690612652565b8015610ee35780601f10610eb857610100808354040283529160200191610ee3565b820191906000526020600020905b815481529060010190602001808311610ec657829003601f168201915b5050505050908060030154908060040154908060050160009054906101000a900473ffffffffffffffffffffffffffffffffffffffff16908060060154905087565b6000610f31600261185c565b6000610f3d600261184e565b90506040518060e001604052808281526020018781526020018681526020018581526020018481526020013373ffffffffffffffffffffffffffffffffffffffff1681526020014281525060056000838152602001908152602001600020600082015181600001556020820151816001019081610fba919061282f565b506040820151816002019081610fd0919061282f565b50606082015181600301556080820151816004015560a08201518160050160006101000a81548173ffffffffffffffffffffffffffffffffffffffff021916908373ffffffffffffffffffffffffffffffffffffffff16021790555060c08201518160060155905050807fd6bfefd1e13e1ada6c057dbe6544e7b39a0115cc79fae513141a2efab91daec4873360405161106b929190612a67565b60405180910390a280915050949350505050565b6060600860008373ffffffffffffffffffffffffffffffffffffffff1673ffffffffffffffffffffffffffffffffffffffff16815260200190815260200160002080548060200260200160405190810160405280929190818152602001828054801561110a57602002820191906000526020600020905b8154815260200190600101908083116110f6575b50505050509050919050565b61111e611a09565b816000811180156111385750611134600461184e565b8111155b611177576040517f08c379a000000000000000000000000000000000000000000000000000000000815260040161116e9061294d565b60405180910390fd5b60076000848152602001908152602001600020604051806101600160405290816000820154815260200160018201548152602001600282015481526020016003820180546111c490612652565b80601f01602080910402602001604051908101604052809291908181526020018280546111f090612652565b801561123d5780601f106112125761010080835404028352916020019161123d565b820191906000526020600020905b81548152906001019060200180831161122057829003601f168201915b505050505081526020016004820160009054906101000a900473ffffffffffffffffffffffffffffffffffffffff1673ffffffffffffffffffffffffffffffffffffffff1673ffffffffffffffffffffffffffffffffffffffff168152602001600582018054806020026020016040519081016040528092919081815260200182805480156112eb57602002820191906000526020600020905b8154815260200190600101908083116112d7575b5050505050815260200160068201805461130490612652565b80601f016020809104026020016040519081016040528092919081815260200182805461133090612652565b801561137d5780601f106113525761010080835404028352916020019161137d565b820191906000526020600020905b81548152906001019060200180831161136057829003601f168201915b50505050508152602001600782015481526020016008820160009054906101000a900460ff1660048111156113b5576113b46122d2565b5b60048111156113c7576113c66122d2565b5b815260200160098201548152602001600a82015481525050915050919050565b60008260008111801561140357506113ff600461184e565b8111155b611442576040517f08c379a00000000000000000000000000000000000000000000000000000000081526004016114399061294d565b60405180910390fd5b833373ffffffffffffffffffffffffffffffffffffffff166007600083815260200190815260200160002060040160009054906101000a900473ffffffffffffffffffffffffffffffffffffffff1673ffffffffffffffffffffffffffffffffffffffff16146114e7576040517f08c379a00000000000000000000000000000000000000000000000000000000081526004016114de906129b9565b60405180910390fd5b600060076000878152602001908152602001600020905060026004811115611512576115116122d2565b5b8160080160009054906101000a900460ff166004811115611536576115356122d2565b5b14611576576040517f08c379a000000000000000000000000000000000000000000000000000000000815260040161156d90612ae3565b60405180910390fd5b6000816001015482600201548360060188423360405160200161159e96959493929190612c2b565b60405160208183030381529060405280519060200120905080826007018190555060038260080160006101000a81548160ff021916908360048111156115e7576115e66122d2565b5b02179055504282600a0181905550867f756103f5c719be32b27858da64f2fe3f1c9f1897ac49cca174819826b5aa8fae826040516116259190612477565b60405180910390a28094505050505092915050565b611642611872565b600073ffffffffffffffffffffffffffffffffffffffff168173ffffffffffffffffffffffffffffffffffffffff16036116b1576040517f08c379a00000000000000000000000000000000000000000000000000000000081526004016116a890612d05565b60405180910390fd5b6116ba816118f0565b50565b60076020528060005260406000206000915090508060000154908060010154908060020154908060030180546116f290612652565b80601f016020809104026020016040519081016040528092919081815260200182805461171e90612652565b801561176b5780601f106117405761010080835404028352916020019161176b565b820191906000526020600020905b81548152906001019060200180831161174e57829003601f168201915b5050505050908060040160009054906101000a900473ffffffffffffffffffffffffffffffffffffffff16908060060180546117a690612652565b80601f01602080910402602001604051908101604052809291908181526020018280546117d290612652565b801561181f5780601f106117f45761010080835404028352916020019161181f565b820191906000526020600020905b81548152906001019060200180831161180257829003601f168201915b5050505050908060070154908060080160009054906101000a900460ff169080600901549080600a015490508a565b600081600001549050919050565b6001816000016000828254019250508190555050565b61187a6119b4565b73ffffffffffffffffffffffffffffffffffffffff16611898610a75565b73ffffffffffffffffffffffffffffffffffffffff16146118ee576040517f08c379a00000000000000000000000000000000000000000000000000000000081526004016118e590612d71565b60405180910390fd5b565b60008060009054906101000a900473ffffffffffffffffffffffffffffffffffffffff169050816000806101000a81548173ffffffffffffffffffffffffffffffffffffffff021916908373ffffffffffffffffffffffffffffffffffffffff1602179055508173ffffffffffffffffffffffffffffffffffffffff168173ffffffffffffffffffffffffffffffffffffffff167f8be0079c531659141344cd1fd0a4f28419497f9722a3daafe3b4186f6b6457e060405160405180910390a35050565b600033905090565b8280548282559060005260206000209081019282156119f8579160200282015b828111156119f75782518255916020019190600101906119dc565b5b509050611a059190611a8e565b5090565b60405180610160016040528060008152602001600081526020016000815260200160608152602001600073ffffffffffffffffffffffffffffffffffffffff16815260200160608152602001606081526020016000801916815260200160006004811115611a7a57611a796122d2565b5b815260200160008152602001600081525090565b5b80821115611aa7576000816000905550600101611a8f565b5090565b6000604051905090565b600080fd5b600080fd5b600073ffffffffffffffffffffffffffffffffffffffff82169050919050565b6000611aea82611abf565b9050919050565b611afa81611adf565b8114611b0557600080fd5b50565b600081359050611b1781611af1565b92915050565b6000819050919050565b611b3081611b1d565b8114611b3b57600080fd5b50565b600081359050611b4d81611b27565b92915050565b60008060408385031215611b6a57611b69611ab5565b5b6000611b7885828601611b08565b9250506020611b8985828601611b3e565b9150509250929050565b611b9c81611b1d565b82525050565b6000602082019050611bb76000830184611b93565b92915050565b600080fd5b600080fd5b6000601f19601f8301169050919050565b7f4e487b7100000000000000000000000000000000000000000000000000000000600052604160045260246000fd5b611c1082611bc7565b810181811067ffffffffffffffff82111715611c2f57611c2e611bd8565b5b80604052505050565b6000611c42611aab565b9050611c4e8282611c07565b919050565b600067ffffffffffffffff821115611c6e57611c6d611bd8565b5b611c7782611bc7565b9050602081019050919050565b82818337600083830152505050565b6000611ca6611ca184611c53565b611c38565b905082815260208101848484011115611cc257611cc1611bc2565b5b611ccd848285611c84565b509392505050565b600082601f830112611cea57611ce9611bbd565b5b8135611cfa848260208601611c93565b91505092915050565b600080600060608486031215611d1c57611d1b611ab5565b5b6000611d2a86828701611b3e565b9350506020611d3b86828701611b3e565b925050604084013567ffffffffffffffff811115611d5c57611d5b611aba565b5b611d6886828701611cd5565b9150509250925092565b60008060408385031215611d8957611d88611ab5565b5b6000611d9785828601611b3e565b925050602083013567ffffffffffffffff811115611db857611db7611aba565b5b611dc485828601611cd5565b9150509250929050565b60008060008060808587031215611de857611de7611ab5565b5b600085013567ffffffffffffffff811115611e0657611e05611aba565b5b611e1287828801611cd5565b945050602085013567ffffffffffffffff811115611e3357611e32611aba565b5b611e3f87828801611cd5565b9350506040611e5087828801611b3e565b9250506060611e6187828801611b3e565b91505092959194509250565b611e7681611adf565b82525050565b6000602082019050611e916000830184611e6d565b92915050565b600060208284031215611ead57611eac611ab5565b5b6000611ebb84828501611b3e565b91505092915050565b600081519050919050565b600082825260208201905092915050565b60005b83811015611efe578082015181840152602081019050611ee3565b60008484015250505050565b6000611f1582611ec4565b611f1f8185611ecf565b9350611f2f818560208601611ee0565b611f3881611bc7565b840191505092915050565b600060e082019050611f58600083018a611b93565b8181036020830152611f6a8189611f0a565b90508181036040830152611f7e8188611f0a565b9050611f8d6060830187611b93565b611f9a6080830186611b93565b611fa760a0830185611e6d565b611fb460c0830184611b93565b98975050505050505050565b600067ffffffffffffffff821115611fdb57611fda611bd8565b5b602082029050602081019050919050565b600080fd5b6000612004611fff84611fc0565b611c38565b9050808382526020820190506020840283018581111561202757612026611fec565b5b835b81811015612050578061203c8882611b3e565b845260208401935050602081019050612029565b5050509392505050565b600082601f83011261206f5761206e611bbd565b5b813561207f848260208601611ff1565b91505092915050565b6000806040838503121561209f5761209e611ab5565b5b60006120ad85828601611b3e565b925050602083013567ffffffffffffffff8111156120ce576120cd611aba565b5b6120da8582860161205a565b9150509250929050565b6000602082840312156120fa576120f9611ab5565b5b600061210884828501611b08565b91505092915050565b600081519050919050565b600082825260208201905092915050565b6000819050602082019050919050565b61214681611b1d565b82525050565b6000612158838361213d565b60208301905092915050565b6000602082019050919050565b600061217c82612111565b612186818561211c565b93506121918361212d565b8060005b838110156121c25781516121a9888261214c565b97506121b483612164565b925050600181019050612195565b5085935050505092915050565b600060208201905081810360008301526121e98184612171565b905092915050565b600082825260208201905092915050565b600061220d82611ec4565b61221781856121f1565b9350612227818560208601611ee0565b61223081611bc7565b840191505092915050565b61224481611adf565b82525050565b600082825260208201905092915050565b600061226682612111565b612270818561224a565b935061227b8361212d565b8060005b838110156122ac578151612293888261214c565b975061229e83612164565b92505060018101905061227f565b5085935050505092915050565b6000819050919050565b6122cc816122b9565b82525050565b7f4e487b7100000000000000000000000000000000000000000000000000000000600052602160045260246000fd5b60058110612312576123116122d2565b5b50565b600081905061232382612301565b919050565b600061233382612315565b9050919050565b61234381612328565b82525050565b600061016083016000830151612362600086018261213d565b506020830151612375602086018261213d565b506040830151612388604086018261213d565b50606083015184820360608601526123a08282612202565b91505060808301516123b5608086018261223b565b5060a083015184820360a08601526123cd828261225b565b91505060c083015184820360c08601526123e78282612202565b91505060e08301516123fc60e08601826122c3565b5061010083015161241161010086018261233a565b5061012083015161242661012086018261213d565b5061014083015161243b61014086018261213d565b508091505092915050565b600060208201905081810360008301526124608184612349565b905092915050565b612471816122b9565b82525050565b600060208201905061248c6000830184612468565b92915050565b61249b81612328565b82525050565b6000610140820190506124b7600083018d611b93565b6124c4602083018c611b93565b6124d1604083018b611b93565b81810360608301526124e3818a611f0a565b90506124f26080830189611e6d565b81810360a08301526125048188611f0a565b905061251360c0830187612468565b61252060e0830186612492565b61252e610100830185611b93565b61253c610120830184611b93565b9b9a5050505050505050505050565b7f4d656d652074656d706c617465206e6f7420666f756e64000000000000000000600082015250565b6000612581601783611ecf565b915061258c8261254b565b602082019050919050565b600060208201905081810360008301526125b081612574565b9050919050565b7f417564696f20747261636b206e6f7420666f756e640000000000000000000000600082015250565b60006125ed601583611ecf565b91506125f8826125b7565b602082019050919050565b6000602082019050818103600083015261261c816125e0565b9050919050565b7f4e487b7100000000000000000000000000000000000000000000000000000000600052602260045260246000fd5b6000600282049050600182168061266a57607f821691505b60208210810361267d5761267c612623565b5b50919050565b60008190508160005260206000209050919050565b60006020601f8301049050919050565b600082821b905092915050565b6000600883026126e57fffffffffffffffffffffffffffffffffffffffffffffffffffffffffffffffff826126a8565b6126ef86836126a8565b95508019841693508086168417925050509392505050565b6000819050919050565b600061272c61272761272284611b1d565b612707565b611b1d565b9050919050565b6000819050919050565b61274683612711565b61275a61275282612733565b8484546126b5565b825550505050565b600090565b61276f612762565b61277a81848461273d565b505050565b5b8181101561279e57612793600082612767565b600181019050612780565b5050565b601f8211156127e3576127b481612683565b6127bd84612698565b810160208510156127cc578190505b6127e06127d885612698565b83018261277f565b50505b505050565b600082821c905092915050565b6000612806600019846008026127e8565b1980831691505092915050565b600061281f83836127f5565b9150826002028217905092915050565b61283882611ec4565b67ffffffffffffffff81111561285157612850611bd8565b5b61285b8254612652565b6128668282856127a2565b600060209050601f8311600181146128995760008415612887578287015190505b6128918582612813565b8655506128f9565b601f1984166128a786612683565b60005b828110156128cf578489015182556001820191506020850194506020810190506128aa565b868310156128ec57848901516128e8601f8916826127f5565b8355505b6001600288020188555050505b505050505050565b7f50726f6a65637420646f6573206e6f7420657869737400000000000000000000600082015250565b6000612937601683611ecf565b915061294282612901565b602082019050919050565b600060208201905081810360008301526129668161292a565b9050919050565b7f4e6f742070726f6a656374206f776e6572000000000000000000000000000000600082015250565b60006129a3601183611ecf565b91506129ae8261296d565b602082019050919050565b600060208201905081810360008301526129d281612996565b9050919050565b7f50726f6a656374206d7573742062652073796e63656420666972737400000000600082015250565b6000612a0f601c83611ecf565b9150612a1a826129d9565b602082019050919050565b60006020820190508181036000830152612a3e81612a02565b9050919050565b60006020820190508181036000830152612a5f8184611f0a565b905092915050565b60006040820190508181036000830152612a818185611f0a565b9050612a906020830184611e6d565b9392505050565b7f50726f6a656374206d757374206265206578706f727465642066697273740000600082015250565b6000612acd601e83611ecf565b9150612ad882612a97565b602082019050919050565b60006020820190508181036000830152612afc81612ac0565b9050919050565b6000819050919050565b612b1e612b1982611b1d565b612b03565b82525050565b600081905092915050565b60008154612b3c81612652565b612b468186612b24565b94506001821660008114612b615760018114612b7657612ba9565b60ff1983168652811515820286019350612ba9565b612b7f85612683565b60005b83811015612ba157815481890152600182019150602081019050612b82565b838801955050505b50505092915050565b6000612bbd82611ec4565b612bc78185612b24565b9350612bd7818560208601611ee0565b80840191505092915050565b60008160601b9050919050565b6000612bfb82612be3565b9050919050565b6000612c0d82612bf0565b9050919050565b612c25612c2082611adf565b612c02565b82525050565b6000612c378289612b0d565b602082019150612c478288612b0d565b602082019150612c578287612b2f565b9150612c638286612bb2565b9150612c6f8285612b0d565b602082019150612c7f8284612c14565b601482019150819050979650505050505050565b7f4f776e61626c653a206e6577206f776e657220697320746865207a65726f206160008201527f6464726573730000000000000000000000000000000000000000000000000000602082015250565b6000612cef602683611ecf565b9150612cfa82612c93565b604082019050919050565b60006020820190508181036000830152612d1e81612ce2565b9050919050565b7f4f776e61626c653a2063616c6c6572206973206e6f7420746865206f776e6572600082015250565b6000612d5b602083611ecf565b9150612d6682612d25565b602082019050919050565b60006020820190508181036000830152612d8a81612d4e565b905091905056fea2646970667358221220af35f32f9c33d94972a1e8a343734c1e14cd46962ac6b5cf42efd29ecff87a8064736f6c63430008130033697066733a2f2f516d44656661756c74332f6368616e67652d6d792d6d696e642e6a7067697066733a2f2f516d44656661756c74312f646973747261637465642d626f79667269656e642e6a7067",
  "linkReferences": {},
  "deployedLinkReferences": {}
}